{
  "contractName": "SmartGrid",
  "abi": [
    {
      "inputs": [],
      "stateMutability": "nonpayable",
      "type": "constructor"
    },
    {
      "inputs": [],
      "name": "owner",
      "outputs": [
        {
          "internalType": "address",
          "name": "",
          "type": "address"
        }
      ],
      "stateMutability": "view",
      "type": "function",
      "constant": true
    },
    {
      "inputs": [
        {
          "internalType": "address",
          "name": "",
          "type": "address"
        }
      ],
      "name": "smartGridBalance",
      "outputs": [
        {
          "internalType": "uint256",
          "name": "",
          "type": "uint256"
        }
      ],
      "stateMutability": "view",
      "type": "function",
      "constant": true
    },
    {
      "inputs": [],
      "name": "getSmartGridBalance",
      "outputs": [
        {
          "internalType": "uint256",
          "name": "",
          "type": "uint256"
        }
      ],
      "stateMutability": "view",
      "type": "function",
      "constant": true
    }
  ],
  "bytecode": "0x608060405234801561001057600080fd5b50336000806101000a81548173ffffffffffffffffffffffffffffffffffffffff021916908373ffffffffffffffffffffffffffffffffffffffff1602179055506064600160003073ffffffffffffffffffffffffffffffffffffffff1673ffffffffffffffffffffffffffffffffffffffff16815260200190815260200160002081905550610259806100a56000396000f3fe608060405234801561001057600080fd5b50600436106100415760003560e01c80631a9a18d4146100465780638da5cb5b14610076578063a50872ab14610094575b600080fd5b610060600480360381019061005b9190610198565b6100b2565b60405161006d91906101de565b60405180910390f35b61007e6100ca565b60405161008b9190610208565b60405180910390f35b61009c6100ee565b6040516100a991906101de565b60405180910390f35b60016020528060005260406000206000915090505481565b60008054906101000a900473ffffffffffffffffffffffffffffffffffffffff1681565b6000600160003073ffffffffffffffffffffffffffffffffffffffff1673ffffffffffffffffffffffffffffffffffffffff16815260200190815260200160002054905090565b600080fd5b600073ffffffffffffffffffffffffffffffffffffffff82169050919050565b60006101658261013a565b9050919050565b6101758161015a565b811461018057600080fd5b50565b6000813590506101928161016c565b92915050565b6000602082840312156101ae576101ad610135565b5b60006101bc84828501610183565b91505092915050565b6000819050919050565b6101d8816101c5565b82525050565b60006020820190506101f360008301846101cf565b92915050565b6102028161015a565b82525050565b600060208201905061021d60008301846101f9565b9291505056fea26469706673582212206fea544613ff8c363124b2e4844993d2b6580abbfb7a26fd36b48f3bd1a5258564736f6c634300080d0033",
  "immutableReferences": {},
  "source": "// SPDX-License-Identifier: MIT\r\npragma solidity ^0.8.11;\r\n\r\ncontract SmartGrid {\r\n\r\n    // state variables\r\n    address public owner;\r\n    mapping (address => uint) public smartGridBalance;\r\n\r\n    // set the owner as th address that deployed the contract\r\n    // set the initial electricity balance to 100\r\n    constructor() {\r\n        owner = msg.sender;\r\n        smartGridBalance[address(this)] = 100;\r\n    }\r\n\r\n    function getSmartGridBalance() public view returns (uint) {\r\n        return smartGridBalance[address(this)];\r\n    }\r\n    /*\r\n    // Let the owner restock the electricity\r\n    function restock(uint amount) public {\r\n        require(msg.sender == owner, \"Only the owner can restock.\");\r\n        smartGridBalance[address(this)] += amount;\r\n    }\r\n\r\n    // Purchase electricity from the smart grid\r\n    function purchase(uint amount) public payable {\r\n        require(msg.value >= amount * 2 ether, \"You must pay at least 2 ETH per purchase\");\r\n        require(smartGridBalance[address(this)] >= amount, \"Not enough electricity in stock to complete this purchase\");\r\n        smartGridBalance[address(this)] -= amount;\r\n        smartGridBalance[msg.sender] += amount;\r\n    }\r\n\r\n    function getData() public view returns (uint) {\r\n        return smartGridBalance[address(this)];\r\n    }*/\r\n}",
  "sourcePath": "C:\\Users\\asafy\\ExjobbFinal\\contracts\\SmartGrid.sol",
  "compiler": {
    "name": "solc",
    "version": "0.8.13+commit.abaa5c0e.Emscripten.clang"
  },
  "schemaVersion": "3.4.13",
  "updatedAt": "2023-05-22T03:58:08.919Z",
  "networkType": "ethereum",
  "devdoc": {
    "kind": "dev",
    "methods": {},
    "version": 1
  },
  "userdoc": {
    "kind": "user",
    "methods": {},
    "version": 1
  }
}